:020000040800F2
:100000000000022089060008850600086D370008F8
:100010008506000885060008850600080000000027
:10002000000000000000000000000000850600083D
:10003000850600080000000085060008F13600086B
:100040008506000885060008850600088506000864
:100050008506000885060008850600088506000854
:10006000850600088506000885060008F9320008A4
:100070000533000885060008113300081D33000809
:100080006DE30008D52700088506000885060008EE
:100090008506000885060008850600088506000814
:1000A0008506000885060008850600088506000804
:1000B00041D700084DD7000859D700080928000883
:1000C000850600081528000885060008B1CF00083D
:1000D000BDCF0008A1E10008D1E1000805E2000859
:1000E0008506000885060008000000008506000857
:1000F00085060008850600088506000885060008B4
:10010000850600088506000865D70008C9CF0008E5
:1001100039E200086DE2000885060008850600083F
:100120008506000885060008EDCF000821D00008EC
:10013000A1E300088506000885060008850600087A
:1001400000000000000000000000000000000000AF
:10015000850600088506000885060008A1E200085B
:100160002128000885060008013700082537000807
:10017000850600084937000885060008850600083E
:100180008506000885060008D5E2000805E300089A
:10019000D5CF0008E1CF00088506000885060008D5
:1001A0008506000885060008850600088506000803
:1001B0001930000885060008850600088506000835
:1001C000850600088506000835230008412300083D
:1001D000850600084D2300088506000885060008EE
:1001E00085060008850600088506000885060008C3
:1001F00085060008850600088506000885060008B3
:1002000085060008850600088506000885060008A2
:100210008506000885060008850600088506000892
:100220008506000885060008850600080000000015
:100230008506000885060008000000008506000805
:100240008506000885060008850600088506000862
:100250008506000885060008850600088506000852
:100260008506000885060008850600088506000842
:10027000850600088506000839E300080000000034
:1002800085060008850600088506000800000000B5
:080290000000000085060008D3
:1002A00010B5054C237833B9044B13B10448AFF3B0
:1002B00000800123237010BD080600240000000008
:1002C0006C29010808B5034B1BB103490348AFF380
:1002D000008008BD000000000C0600246C29010805
:1002E00001F0FF01102A2BDB10F0070F08D010F8E7
:1002F000013B013A8B422DD010F0070F42B3F6D1EB
:10030000F0B441EA012141EA014122F007047FF003
:1003100000070023F0E80256083C85EA010586EA5A
:10032000010685FA47F5A3FA87F586FA47F6A5FA96
:1003300087F68EB9EED1F0BC01F0FF0102F00702A2
:1003400032B110F8013B013A83EA010313B1F8D14D
:100350000020704701387047002D06BF354603382E
:10036000073815F0010F07D1013015F4807F02BF67
:10037000013015F4C03F0130F0BC0138704700BFB8
:1003800053B94AB9002908BF00281CBF4FF0FF31FC
:100390004FF0FF3000F074B9ADF1080C6DE904CEF8
:1003A00000F006F8DDF804E0DDE9022304B0704750
:1003B0002DE9F047089D04468E46002B4DD18A4218
:1003C000944669D9B2FA82F252B101FA02F3C2F14B
:1003D000200120FA01F10CFA02FC41EA030E9440DC
:1003E0004FEA1C48210CBEFBF8F61FFA8CF708FBFD
:1003F00016E341EA034306FB07F199420AD91CEBD5
:10040000030306F1FF3080F01F81994240F21C8106
:10041000023E63445B1AA4B2B3FBF8F008FB10334E
:1004200044EA034400FB07F7A7420AD91CEB040483
:1004300000F1FF3380F00A81A74240F20781644453
:10044000023840EA0640E41B00261DB1D4400023D8
:10045000C5E900433146BDE8F0878B4209D9002D3C
:1004600000F0EF800026C5E9000130463146BDE8C6
:10047000F087B3FA83F6002E4AD18B4202D3824230
:1004800000F2F980841A61EB030301209E46002DDF
:10049000E0D0C5E9004EDDE702B9FFDEB2FA82F234
:1004A000002A40F09280A1EB0C014FEA1C471FFA92
:1004B0008CFE0126200CB1FBF7F307FB131140EA79
:1004C00001410EFB03F0884208D91CEB010103F146
:1004D000FF3802D2884200F2CB804346091AA4B208
:1004E000B1FBF7F007FB101144EA01440EFB00FEDC
:1004F000A64508D91CEB040400F1FF3102D2A64541
:1005000000F2BB800846A4EB0E0440EA03409CE7DF
:10051000C6F12007B34022FA07FC4CEA030C20FA8C
:1005200007F401FA06F31C43F9404FEA1C4900FAAC
:1005300006F3B1FBF9F8200C1FFA8CFE09FB181129
:1005400040EA014108FB0EF0884202FA06F20BD99C
:100550001CEB010108F1FF3A80F08880884240F2EC
:100560008580A8F102086144091AA4B2B1FBF9F030
:1005700009FB101144EA014100FB0EFE8E4508D92B
:100580001CEB010100F1FF346CD28E456AD90238B0
:10059000614440EA0840A0FB0294A1EB0E01A14295
:1005A000C846A64656D353D05DB1B3EB080261EB03
:1005B0000E0101FA07F722FA06F3F1401F43C5E9DD
:1005C000007100263146BDE8F087C2F12003D84013
:1005D0000CFA02FC21FA03F3914001434FEA1C4755
:1005E0001FFA8CFEB3FBF7F007FB10360B0C43EA47
:1005F000064300FB0EF69E4204FA02F408D91CEBF7
:10060000030300F1FF382FD29E422DD902386344F4
:100610009B1B89B2B3FBF7F607FB163341EA034194
:1006200006FB0EF38B4208D91CEB010106F1FF38E3
:1006300016D28B4214D9023E6144C91A46EA0046DA
:1006400038E72E46284605E70646E3E61846F8E66C
:100650004B45A9D2B9EB020864EB0C0E0138A3E7B5
:100660004646EAE7204694E74046D1E7D0467BE796
:10067000023B614432E7304609E76444023842E70E
:10068000704700BFFEE700BF0B480C4A904203D002
:10069000121A0B4910F0BCFD0A480B4A904203D0D5
:1006A000121A002110F0C2FD03F088FA10F084FD48
:1006B00000F0ACF8FEE700BF0000002408060024AC
:1006C000A0290108080600243C660024704700BFEA
:1006D0009AB10368406803EB820C10B40C68496857
:1006E00053F8042B44F8042B634550F8042B41F8CD
:1006F000042BF5D15DF8044B70477047704700BF7D
:100700002DE9F043002385B000F118064FF00A08E8
:1007100004464FF05E090D468DF80D30CDF800808F
:10072000012390F82C101746304603AA8DF80C9040
:1007300002F012F9CDF800800DF10B0294F8303080
:1007400094F82C10002818BF43F00103304684F8B9
:100750003030012302F028F994F83030002818BF17
:1007600043F0010384F83030A5F17303072B01D95E
:100770004D4517D10A2303AA30468DF80C5000933B
:1007800002238DF80D7094F82C1002F0E5F894F81F
:100790003030002818BF43F0010384F8303005B032
:1007A000BDE8F083022303AACDF80080304694F818
:1007B0002C1002F0D1F8CDF8008094F8303003AA64
:1007C00094F82C10002818BF43F0010330468DF830
:1007D0000C5084F8303002238DF80D7002F0BCF814
:1007E000CDF80080054694F8301003AA9DF80B3030
:1007F0003046002D18BF41F001018DF80C908DF8A6
:100800000D30022384F83010BDE700BF2DE9F04F12
:10081000002199B0C8484FF0000800F0A3FA042165
:10082000C54812AF00F01AFA0321C3480DF1080BB6
:1008300000F0F8F9C149C048D94600F0EFF9C04AC4
:100840005A23C04912880DF1300E8DF8583040F20D
:100850000C6309887646ADF852200122ADF85C3071
:100860004125CDF84880ADF850101392B64C0FCF0B
:10087000AEE80F0097E80300A44627464EF8040BA5
:1008800004F11C0AAEF800100FCEACE80F0096E899
:1008900003004CF8040B0646ACF800100FCFABE891
:1008A0000F004FF01003CBF8006008928DF82C3049
:1008B0000123CDF828800993CDF81C80B9E80F00FA
:1008C000AAE80F0007A98AF8006004F1180001F0F7
:1008D000ADFF94F8303080216322404518BF43F0CB
:1008E0000103204684F83030FFF70AFF012002F0B0
:1008F000ADFF42465E212046FFF702FF94F814A0A8
:1009000094F815900A264FF000085E27012307AAE5
:1009100094F82C1000968D488DF81D808DF81C7071
:1009200002F01AF894F83020012394F82C10404576
:1009300018BF42F001020096844884F8302002AAD1
:1009400002F032F894F83020022394F82C1040453D
:1009500018BF42F0010200967C4884F8302007AAB4
:1009600001F0FAFF94F83020022394F82C1040454F
:1009700018BF42F001020096744884F8302007AA9C
:100980008DF81C508DF81DA001F0E6FF94F8301092
:1009900007AA9DF80830404518BF41F001010096B4
:1009A0008DF81D30022384F83010684894F82C101C
:1009B0008DF81C7001F0D0FF94F83020012394F8DA
:1009C0002C10404518BF42F0010200965F4884F8A1
:1009D000302007AA8DF81D808DF81C7001F0BCFF37
:1009E00094F83020012394F82C10404518BF42F0B1
:1009F00001020096554884F8302002AA01F0D4FF85
:100A000094F83020022394F82C10404518BF42F08F
:100A1000010200964D4884F8302007AA01F09CFF9F
:100A200094F830106B1C07AA404518BF41F0010133
:100A300000968DF81C30022384F83010023594F8AB
:100A40002C104248EDB28DF81D9001F085FF94F80E
:100A5000302002239DF80810009640450CBF164632
:100A600042F001068DF81D1007AA94F82C103748A3
:100A70008DF81C7084F8306001F06EFF94F830300F
:100A8000404518BF43F00103592D84F830307FF4FE
:100A900039AF01222B212C48FFF732FE01222C21F5
:100AA0002948FFF72DFE2D2127480E22FFF728FEAB
:100AB00042462E212448FFF723FE01222F212248FF
:100AC000FFF71EFE052230211F48FFF719FE3121D6
:100AD0001D480122FFF714FE424632211A48FFF753
:100AE0000FFE424633211848FFF70AFE42463421E2
:100AF0001548FFF705FE424635211348FFF700FE73
:100B000042465B211048FFF7FBFD10225C210E4896
:100B1000FFF7F6FD20225D210B48FFF7F1FD0A48A3
:100B20008C223946FFF7ECFD94F83000002844D1C0
:100B300001F038FB0CE000BF24060024D1060008B9
:100B4000D8260108D426010860060024780600246F
:100B50000A270025012307AA94F82C1017480097AC
:100B60008DF81C5001F0F8FE94F8306002230CAAB6
:100B700094F82C10A84218BF46F0010600970F48C1
:100B800084F8306001F010FF94F83030BDF8306028
:100B9000A84218BF43F00103C6F30B0684F83030B7
:100BA00002E001350C2DD3D046FA05F3DB07F8D56A
:100BB0002946034801F0E8FAF3E7FEE77806002447
:100BC000C026010810B50F4800240F4A0F490460E1
:100BD0004461046210F0D4FA0D480E4B01210A4A18
:100BE000836043625A2301620361C36240F20C6373
:100BF000C0E90041C0E9064443610749BDE810402F
:100C000010F0BEBA2406002400000024CD0600081F
:100C10006006002401080109FD060008143001F0F7
:100C200005BA00BF38B500F1140504462DED028B5E
:100C3000284601F0B7F9284601F0B0F92846B0EE91
:100C4000408A01F099F9D0ED007AF8EE677A88EEE3
:100C5000277ABDEC028B84ED0E7A38BD38B500F1F1
:100C6000140504462DED028B284601F089F928462B
:100C700001F094F92846B0EE408A01F07DF9D0EDFC
:100C8000007AF8EE677A88EE277ABDEC028B84ED65
:100C90000E7A38BDF0B5032399B0002701251293D1
:100CA00006462C4B09A81595CDE90E7340F2045366
:100CB000ADF84030284BCDE91357099301F04CFBB8
:100CC00009A801F025FC002836D1244B04AF0446C6
:100CD0000090CDF842301023394604958DF820302D
:100CE0001F4BCDE91650CDE906506846059301F03B
:100CF0009DFD0823009A01A909A8ADF804508DF8BC
:100D0000064009940295039300F0E4F800230EA92D
:100D100038463024049302F07BFB03224FF07E53CD
:100D200009A906F114000B930C93CDE90942049A2A
:100D300001F0EAF819B0F0BD40F60132074B169702
:100D400004AFADF824200998CDF84230179500F093
:100D500081F8DBE704020404030300010406040332
:100D60000704010B2DE9F04304462DED028B83B0FF
:100D7000002948D0012140F2011200230091ADF872
:100D800004208DF80630304A0126304B271D3049AB
:100D900004F12908626040F20272A36040F6066323
:100DA000E16004F125092682A4F8252084F8276053
:100DB000A4F8293084F82B6002F0B6FE6946054697
:100DC00048B304F130008DF8066002F00BFE072DE9
:100DD00034D104F114052046FFF75CFF284601F0EA
:100DE000DDF82846B0EE408A01F0C6F8D0ED007A72
:100DF000F8EE677A88EE277A84ED0E7A03B0BDECC0
:100E0000028BBDE8F08340F2011300918DF80610CB
:100E1000ADF80430B7E704F1300002F0E3FD3946E5
:100E2000204601F075FF484601F096FA404601F071
:100E300093FA04F1120000F077F9CAE73946204628
:100E400001F066FFC5E700BF0508050905070506AF
:100E5000050A060610B584B003460124ADF8040067
:100E600003A8ADF80C30ADF80E4001F075FA21463C
:100E700003A801F05BFB204602F0E8FC002103A878
:100E800001F054FB204602F0E1FC214603A801F0EA
:100E90004DFB04B010BD00BF10B5C2F3002384B0F9
:100EA0000C46017C8DF80D2043EA4402FA2402230B
:100EB0008DF80C2003AA009401F04EFD18B1012416
:100EC000204604B010BD04460A2002F0BFFC2046B4
:100ED00004B010BD034670B543F8042B044684B03B
:100EE00007C983E80700A37983B91A210B461E229C
:100EF000FA2523742046ADF80C20022303AA00959E
:100F000001F02AFD28B1012004B070BD1B210B4661
:100F1000EDE70A2002F09AFC4FF4B8520095022344
:100F2000ADF80C20204603AA217C01F015FD002815
:100F3000E9D10A2002F08AFC41F2027200950223F4
:100F4000ADF80C20204603AA217C01F005FD002805
:100F5000D9D10A2002F07AFC042200950223ADF8D0
:100F60000C20204603AA217C01F0F6FC0028CAD1FF
:100F70000A2002F06BFC062200950223ADF80C203B
:100F8000204603AA217C01F0E7FC0028BBD10A20FF
:100F900002F05CFC41F2082200950223ADF80C201F
:100FA000204603AA217C01F0D7FC0028ABD10A20FF
:100FB000064602F04BFC0095022303AA217C204642
:100FC000ADF80C6001F0C8FC00289CD1304602F05E
:100FD0003DFC009522790C232046002A8DF80C3028
:100FE00003AA4FF0020314BF622142218DF80D10B5
:100FF000217C01F0B1FC002885D1304602F026FCAE
:101000002279D4E902310B43DBB20AB943F0400341
:1010100062790AB143F020030E22FA258DF80D30D3
:101020002046009502238DF80C2003AA217C01F0B4
:1010300093FC00287FF467AF0A2002F007FC10221F
:1010400000950223ADF80C20204603AA217C01F074
:1010500083FC00287FF457AF0A2002F0F7FB12212F
:1010600000950223ADF80C1003AA217C204601F064
:1010700073FC00287FF447AF0A2002F0E7FB01224F
:1010800009212046FFF708FF003818BF01203BE781
:10109000F0B5102387B0234C01220025012600273C
:1010A00002A920460195CDE902234FF48052CDE9F3
:1010B000046709F011FC642003F074FB02A94FF4EB
:1010C00080522046CDE9046702261027CDE9026749
:1010D00009F002FC0322102302A92046CDE90223D5
:1010E00000230422CDE904234FF4805209F0F4FBDD
:1010F00040F23223042202A9019310232046CDE9B5
:101100000223019A012305924FF48052049309F0BF
:10111000E3FB40F60601204609F0FEFB284607B037
:10112000F0BD00BF9C0600241C4B00221C494FF060
:10113000400C30B5054689B00220596007219A60FD
:101140001A620124DA620A224FF4006EDC60069211
:101150002022CDE9000104200821CDE9020103206D
:101160001021CDE9040108206946C3E904024FF4C7
:10117000C072181DC3E906C24FF48052C3E909E2E8
:1011800009F080FB38B92846FFF782FF003818BF06
:10119000012009B030BD204609B030BD98060024BA
:1011A00040410052614A0021D0B513688EB00A91C7
:1011B000002B40F0B9805E4B01214FF683700C2468
:1011C00011600221D3F8D4200026032742F4805274
:1011D000C3F8D420D3F8D42002F480520092009AAD
:1011E000D3F8E02042F01002C3F8E020D3F8E0206A
:1011F00002F010020192019AD3F8E02042F040027E
:10120000C3F8E020D3F8E02002F040020292029AF4
:10121000D3F8E02042F00802C3F8E020D3F8E02041
:1012200002F008020392039AD3F8E02042F480729D
:10123000C3F8E020D3F8E02002F480720492049A0C
:10124000D3F8E02042F08002C3F8E020D3F8E02099
:1012500002F080020592059AD3F8E02042F02002C5
:10126000C3F8E020D3F8E02002F020020692069AAC
:10127000D3F8E02042F00402C3F8E020D3F8E030D5
:101280000C9403F0040307930323079A0B93CDE90F
:10129000080108A9274804F02BFB48F23712022363
:1012A00008A925480C94CDE90823CDE90A6704F084
:1012B0001FFB4CF20372022308A920480C94CDE9CD
:1012C0000823CDE90A6704F013FB40F2FF62022312
:1012D00008A91B480C94CDE90823CDE90A6704F05E
:1012E00007FB4FF60C72022308A916480C94CDE9AF
:1012F0000823CDE90A6704F0FBFA4FF63F02022308
:1013000008A911480C94CDE90823CDE90A6704F037
:10131000EFFA2022022308A90A480C94CDE90A67B3
:10132000CDE9082304F0E4FA0EB0D0BD9406002401
:10133000004402580010025800180258000C0258CD
:1013400000200258001C0258001402582DE9F04FEA
:10135000DFF8108406460D46144608F118002DEDFE
:10136000028B89B000AF02F04BF9D8F8183073B394
:10137000D8F81C30D8F80490002B43690BBF4FF00D
:10138000080A4FF0100A4FF0020B4FF0040BB9F1AE
:10139000000F2AD0A200EA46012B02F1070222F038
:1013A0000702ADEB020D6846ADEB020D694600F099
:1013B0003F81022B00F0D680002B6FD02246C84719
:1013C000D5462437BD46BDEC028BBDE8F08FD8F87A
:1013D0001C30002BF5D0D8F804904FF0080A4FF0DD
:1013E000020B4369B9F1000FD4D1FB61D8F800308A
:1013F000BB61002BE5D0D54802F074F96B46BBF118
:10140000020F786108EE103AFB6900F083816A46AA
:101410005146A2EBC40295466200EA46B2FBFBF2DB
:10142000AAEBC40085460AEB8200EE46F861ADEBFC
:10143000010DF8690EEB820CC7F810C0EC46ADEB5D
:10144000010D00EB8201CCF80400CCF8081001EB90
:1014500082013869E946CCF80C1000EB8201CCF827
:1014600000A001EB8202C9E900E0C9E90212012BE8
:1014700000F06483022B00F06C82002B00F080816E
:10148000620849466046BB69984718EE103A24370F
:101490009D46BD46BDEC028BBDE8F08F002C8DD083
:1014A0001A46D8ED0C6A9FEDB27A8446331D36F9A0
:1014B00022E00CF1080C07EE90EA33F922E0023248
:1014C000F8EEE77A944267EE877A67EEA67A4CEDFB
:1014D000027A07EE90EAF8EEE77A67EE877A67EE2F
:1014E000A67A4CED017AE2D8F9612246C847984EB7
:1014F000D8ED0D6A0020F9692B1D9FED9E7A9FEDB6
:101500009E6ADFED9E5A22E0F4EEC67AF1EE10FA02
:10151000C0F2C88447F6FE72D1ED017A45F820206A
:1015200066EEA77AF4EEC77AF1EE10FA40F2F08098
:10153000F4EEC67AF1EE10FAC0F2D58447F6FE72E8
:1015400043F820200230083184427FF639AFD1EDD4
:10155000007A66EEA77AF4EEC77AF1EE10FAD3D8E5
:101560003246D9E7002C3FF429AFD8ED0C6A844607
:101570009FED787A0022331D8E4656F822100CF12A
:10158000080C07EE901A53F822100232F8EEE77AB0
:10159000944267EE877A67EEA67A4CED027A07EE00
:1015A000901AF8EEE77A67EE877A67EEA67A4CED46
:1015B000017AE2D871462246C7F81CE0C847664E59
:1015C000D8ED0D6A0020F9692B1D9FED6A7A9FED19
:1015D0006A6ADFF894C120E0F4EEC67AF1EE10FA00
:1015E000C0F279843246D1ED017A45F8202066EECA
:1015F000A77AF4EEC77AF1EE10FA40F28780F4EEA3
:10160000C67AF1EE10FAC0F25E84324643F820202A
:101610000230083184427FF6D3AED1ED007A66EE17
:10162000A77AF4EEC77AF1EE10FAD5D86246DAE777
:10163000002C3FF4C3AED8ED0C6A86469FED477A86
:101640004FF0000C331D56F82C200EF1080E82F4DA
:101650000002A2F5000207EE902A53F82C200CF1AC
:10166000020CF8EEE77A82F400026445A2F500026B
:1016700067EE877A67EEA67A4EED027A07EE902A39
:10168000F8EEE77A67EE877A67EEA67A4EED017A92
:10169000D9D8F9612246C847314ED8ED0D6A0020ED
:1016A000F9692B1D9FED337A9FED336ADFF8BCC0DB
:1016B0001FE0F4EEC67AF1EE10FAC0F2FC83324677
:1016C000D1ED017A45F8202066EEA77AF4EEC77ACC
:1016D000F1EE10FA18D9F4EEC67AF1EE10FAC0F273
:1016E000DA83324643F820200230083184427FF604
:1016F00067AED1ED007A66EEA77AF4EEC77AF1EE26
:1017000010FAD6D86246DBE76246EBE762467DE731
:10171000324615E7A100D6466208073121F00701DD
:10172000ADEB010DEA46ADEB010D6946ADEB0E0DDB
:101730000AEB8200EC46ADEB0E0D01EB8202F86184
:10174000E946CCE900A0C9E9001290E6EC060024C5
:101750000280FFFF000000300082FF7F00000034A5
:1017600082FF7F00D0060024007E00807E0080FF84
:101770000000003804FF7FBF04FF7F3F00FEFF46EC
:10178000002C00F0C982BBF1020FD8F8242000F031
:10179000FA827969C7F8049002EB810E5FED0C5A6A
:1017A0008A00DCF808100EF104007A611A46DCF8B1
:1017B0000C303B61331DD7F810903D61FD69C7E9DE
:1017C00002CB8C46834636F92210D8ED0C7A06EE11
:1017D000101A33F9221006EE901A3EF92210B8EED4
:1017E000C66A07EE101AF8EEE66A3BF92210B8EE68
:1017F000C77A26EE256A66EEA56A27EE257A26EEDA
:10180000276A66EEA76A27EE277A07EE901A510834
:101810000232F8EEE77A0AEB8100944280ED006A2A
:1018200005EB810067EEA57AC0ED006A0CEB810044
:1018300009EB810180ED007A98ED0C7A67EE877AEA
:10184000C1ED007ABFD8D7F804903D69D7E902CB43
:1018500060466208BB6949469847D8F82C307A69D7
:10186000D8ED0D6A1A441FED3D7A1FED3D6A2B1D20
:10187000904602F1040A5FED3F5A0022A84ED9E9D2
:1018800000EC51E0F4EEC67AF1EE10FAC0F2C78235
:1018900047F6FE7045F822000CEB0100D0ED007A0F
:1018A00066EEA77AF4EEC77AF1EE10FA4BD9F4EEB1
:1018B000C67AF1EE10FAC0F2BA8247F6FE70BBF1BA
:1018C000020F43F822002BD0D9F808000844D0EDCD
:1018D000007A66EEA77AF4EEC77AF1EE10FA36D9FE
:1018E000F4EEC67AF1EE10FAC0F2CD8247F6FE7041
:1018F00048F82200D9F80C000144D1ED007A66EED8
:10190000A77AF4EEC77AF1EE10FA1ED9F4EEC67A91
:10191000F1EE10FAC0F2AF8247F6FE714AF82210DB
:10192000023294427FF6B1AD51080EEB810089007E
:10193000D0ED007A66EEA77AF4EEC77AF1EE10FAEF
:10194000A0D83046A6E73046B9E73146E6E730464C
:10195000CEE7002C00F0E081BBF1020FD8F8243074
:1019600000F0E1817A69DCF8081003EB820EC7F819
:1019700004909300DFED6B5A0EF1040000227B61AE
:10198000DCF80C303B61331DD7F810903D61FD69E8
:10199000C7E902CB8C46834656F82210D8ED0C7A64
:1019A00007EE101A53F82210B8EEC76A07EE101AA5
:1019B0005EF82210F8EEC76A07EE101A26EE256AC6
:1019C0005BF82210B8EEC77A66EEA56A26EE276AA3
:1019D00027EE257A66EEA76A27EE277A07EE901A99
:1019E00051080232F8EEE77A0AEB8100944280ED6A
:1019F000006A05EB810067EEA57AC0ED006A0CEB8A
:101A0000810009EB810180ED007A98ED0C7A67EE98
:101A1000877AC1ED007ABFD8D7F804903D69D7E93D
:101A200002CB60466208BB6949469847D8F82C301B
:101A30007A69D8ED0D6A1A449FED3E7A9FED3E6AB1
:101A4000131D9246DFF8E4C00022FB612B1D364EC9
:101A5000D9E9008E4EE0F4EEC67AF1EE10FAC0F24B
:101A6000FC81304645F822000EEB0100D0ED007AF3
:101A700066EEA77AF4EEC77AF1EE10FA49D9F4EEE1
:101A8000C67AF1EE10FAC0F2EF813046BBF1020FD8
:101A900043F822002AD0D9F808000844D0ED007A93
:101AA00066EEA77AF4EEC77AF1EE10FA35D9F4EEC5
:101AB000C67AF1EE10FAC0F2C98130464AF8220027
:101AC000D9F80C000144D1ED007A66EEA77AF4EE65
:101AD000C77AF1EE10FA1ED9F4EEC67AF1EE10FADA
:101AE000C0F2AD813146F86940F8221002329442CA
:101AF0007FF6CBAC510808EB81008900D0ED007A6D
:101B000066EEA77AF4EEC77AF1EE10FAA3D8604633
:101B1000A8E76046BAE76146E5E76046CEE700BF62
:101B20000280FFFF000000300082FF7F007E008007
:101B30000000003404FF7FBF04FF7F3F002C00F053
:101B4000EB807A690021D8F82430C7F8109003EBB5
:101B5000820ED7F81C909300FD610EF104021FED78
:101B60000C6A7B61331D154656F821204808D8EDD4
:101B70000C6ABBF1020F82F40002A2F5000207EE2C
:101B8000902A53F8212082F40002B8EEE77AA2F5F9
:101B9000000227EE067A07EE902A0AEB8002F8EEA2
:101BA000E77A27EE267A67EE867A82ED007A09EBED
:101BB00080024FEA800067EEA67AC2ED007A27D055
:101BC0005EF8212082F40002A2F5000207EE902ABE
:101BD00055F8212082F40002B8EEE77AA2F500025F
:101BE00027EE067A07EE902ADCF80820F8EEE77A6E
:101BF000024427EE267A67EE867A82ED007A98ED27
:101C00000C7ADCF80C2067EE877A0244C2ED007A89
:101C100002318C42A8D8D7F8109060466208BB69A0
:101C20004946FD699847D8F82C307A69D8ED0D6A95
:101C30001A441FED407A1FED406A131D9246DFF8EB
:101C4000C4C20022FB612B1DAB4ED9E9008E4EE0D1
:101C5000F4EEC67AF1EE10FAC0F2C580304645F8CF
:101C600022000EEB0100D0ED007A66EEA77AF4EECA
:101C7000C77AF1EE10FA49D9F4EEC67AF1EE10FA0D
:101C8000C0F2BF803046BBF1020F43F822002AD0D9
:101C9000D9F808000844D0ED007A66EEA77AF4EE91
:101CA000C77AF1EE10FA35D9F4EEC67AF1EE10FAF1
:101CB000C0F2AE8030464AF82200D9F80C00014448
:101CC000D1ED007A66EEA77AF4EEC77AF1EE10FA5B
:101CD0001ED9F4EEC67AF1EE10FAC0F28B803146CE
:101CE000F86940F82210023294427FF6CEAB5108D8
:101CF00008EB81008900D0ED007A66EEA77AF4EE59
:101D0000C77AF1EE10FAA3D86046A8E76046BAE7B2
:101D10006146E5E76046CEE7224649466046BB6934
:101D20009847FFF7B2BBC7F810B0002298ED0C6AD5
:101D3000331DDFED726AD7F81CB0786956F82210AF
:101D400007EE901A53F82210B8EEE77A07EE901AD1
:101D500051080232F8EEE77A27EE267A0AEB810E76
:101D600094420BEB810167EEA67A27EE067A67EEC6
:101D7000867A8EED007AC1ED007ADFD88300D7F83D
:101D800010B07B614DE61A46C7F810B098ED0C6AAA
:101D9000331DDFED5B6AD7F81CB0786936F9221085
:101DA00007EE101A33F9221007EE901AB8EEC77A30
:101DB00051080232F8EEE77A27EE267A0AEB810E16
:101DC00094420BEB810167EEA67A27EE067A67EE66
:101DD000867A8EED007AC1ED007ADFD88300D7F8DD
:101DE00010B07B6134E5F0EE675AFEEEE45A15EE72
:101DF000900A34E7F0EE675AFEEEE45A15EE901AB8
:101E00006EE7F0EE675AFEEEE45A15EE900A3AE7F6
:101E1000F0EE675AFEEEE45A15EE900A4BE767EED5
:101E2000A57AFDEEE77A17EE900A00B232E567EE8A
:101E3000A57AFDEEE77A17EE900A00B23FE5F0EEE4
:101E4000675AFEEEE05A15EE901A4CE6F0EE675A2D
:101E5000FEEEE05A15EE900A30E6F0EE675AFEEE1E
:101E6000E05A15EE900AFDE5F0EE675AFEEEE05AF4
:101E700015EE900A0AE667EEA57AFDEEE77A17EE10
:101E8000901A09B24AE567EEA57AFDEEE77A17EEF9
:101E9000900A00B22CE5F0EE675AFEEEE45A15EE19
:101EA000902A1FE467EEA57AFDEEE77A17EE902AF6
:101EB00012B2FFF731BBF0EE675AFEEEE45A15EEB0
:101EC000902AFFF7FDBBF0EE675AFEEEE05A15EEE2
:101ED000902AFFF79BBBF0EE675AFEEEE05A15EE34
:101EE000902AFFF780BB67EEA57AFDEEE77A17EE42
:101EF000902A12B2FFF724BB82FF7F00000000305F
:101F0000000000387E0080FF30B5184C154685B0C3
:101F1000046004F1080EEC460FC98EE80F00D4ED02
:101F2000047AF5EEC07A8CE80F00F1EE10FA1ADDB3
:101F3000B7EE006A94ED057A27EE277AC6EE276A97
:101F400084ED0D7AC4ED0C6A6DB1204640F8185F3F
:101F500001F056FB064903690020064A2162A2628D
:101F6000E36005B030BD012005B030BDD0060024CF
:101F7000002000300000003000680830704700BFCB
:101F8000B1F5807F03680A4628BF4FF48072B1F52F
:101F9000807F9A6094BF002001207047006818304D
:101FA00001F08EBB70B504688AB0A369E160CBB163
:101FB00004F11805284601F023FB8446EE46E66846
:101FC000BCE80F00AEE80F00BCE80F00AEE80F0061
:101FD0009CE803008EE8030069462846049601F059
:101FE00017FAF8B9E069D8B104F11C05284601F0E8
:101FF00007FB8446EE46E468BCE80F00AEE80F003D
:10200000BCE80F00AEE80F009CE803008EE8030078
:1020100069462846049401F0FBF9003818BF0120F6
:102020000AB070BD01200AB070BD00BF30B50468B1
:1020300083B00D46E3694BB1A3680020E26A616A90
:102040009B00009004F11C0001F0DCFAA368074833
:10205000A26A9B00216A009004F1180001F0D2FAF4
:102060000020C4E9005003B030BD00BF4D1300088C
:1020700010B4074B4FF07E51302400220320196129
:102080009C60D8605DF8044B5961C3E90622704733
:10209000D0060024704700BFF8B5134F3C687F2C72
:1020A00007D98023114A42F224411C463B60A2F822
:1020B0007E100F4D2B68012B0AD90C4E0D4D224678
:1020C0003146284600F02CF90028F8D13860F8BDD8
:1020D00022460649074800F023F90028F7D12B686B
:1020E000386001332B60F8BD0C0700241007002472
:1020F000080700249007002430B4154C2168F1B182
:102100004B1E144DE81810F801298C4619460A2A6E
:1021100001D00D2A02D14BB1013BF4E70CF10203CF
:102120007F2B10D98023236030BC7047012202230B
:1021300023600D200A236854AB5430BC7047012241
:102140000223044DF4E70CF101026146F0E700BF01
:102150000C0700241007002410B5094C02460B465A
:10216000084821680844C1F180010FF0C7F92368CD
:1021700018442060FFF7C0FFFFF78EFF10BD00BFBF
:102180000C070024100700240FB400B583B004A985
:1021900051F8040B0191FFF7DFFF03B05DF804EB8A
:1021A00004B0704710B5044600210A4800F032F828
:1021B000002C094B14BF0222002208481A60FFF7C6
:1021C000E3FF0748FFF7E0FF0A20BDE8104001F0F9
:1021D0003DBB00BF9007002408070024DC2601084F
:1021E000EC260108064A0749074808B50EF0C8FF63
:1021F000034A04490548BDE808400EF0C1BF00BFCE
:102200000000002495200008900700249407002473
:10221000704700BF012910B506D0022915D051B171
:10222000BDE8104005F06EBC0A463448344909F058
:1022300003FEE8B1FEE7334B0A46334C33493448DA
:102240001C6009F0F9FD68B1FEE701222C492B481A
:1022500009F0F2FD00B1FEE72E49284809F00EFE14
:10226000C0B1FEE72B492A4809F008FE60B1FEE73D
:102270002849224809F002FE00B1FEE726491F481E
:1022800009F08AFD08B3FEE72449214809F084FDDE
:10229000A8B1FEE72049194809F07EFD00B1FEE72C
:1022A000164809F001FE024640B9164B164C174974
:1022B00017481C6009F0C0FD68B1FEE7FEE714484E
:1022C00009F0F2FD0028ABD0FEE70C4809F0ECFD68
:1022D0000028A5D0FEE70F490D4809F0CFFD00B159
:1022E000FEE70E490A4809F057FD00B1FEE708482D
:1022F00009F0DAFD002893D0FEE700BF340A00247D
:10230000A0000024D00C0024112200088400002426
:1023100098070024080100246400002454000024CD
:10232000084691B208B501F039FD003818BF012008
:1023300008BD00BF014804F0C3BE00BF78350024CB
:10234000014804F0BDBE00BF78350024014804F008
:10235000B7BE00BF783500248378022B30B5044621
:102360008FB037D0032B33D0012B31D000230A9309
:10237000E378012B2AD0022B28D000230B930023D3
:1023800020460C9302F0ECF80546204602F0F0F8E7
:1023900023780990082B13D8DFE803F01F32455843
:1023A0006B7E91A40500594BD3F8E02042F4807273
:1023B000C3F8E020D3F8E03003F480730893089B5F
:1023C00009A9284603F094FA0FB030BD0B93D6E765
:1023D0000A93CDE711230A93CAE74C4B09A9284673
:1023E000D3F8E02042F00102C3F8E020D3F8E03057
:1023F00003F001030093009B03F07AFA0FB030BDA5
:10240000424B09A92846D3F8E02042F00202C3F863
:10241000E020D3F8E03003F002030193019B03F0C6
:1024200067FA0FB030BD394B09A92846D3F8E02030
:1024300042F00402C3F8E020D3F8E03003F00403D4
:102440000293029B03F054FA0FB030BD2F4B09A941
:102450002846D3F8E02042F00802C3F8E020D3F881
:10246000E03003F008030393039B03F041FA0FB03D
:1024700030BD264B09A92846D3F8E02042F01002CF
:10248000C3F8E020D3F8E03003F010030493049B7A
:1024900003F02EFA0FB030BD1C4B09A92846D3F823
:1024A000E02042F02002C3F8E020D3F8E03003F04F
:1024B00020030593059B03F01BFA0FB030BD134BAF
:1024C00009A92846D3F8E02042F04002C3F8E020F2
:1024D000D3F8E03003F040030693069B03F008FABC
:1024E0000FB030BD094B09A92846D3F8E02042F0CF
:1024F0008002C3F8E020D3F8E03003F080030793B4
:10250000079B03F0F5F90FB030BD00BF004402583F
:1025100038B5054602F024F80446284602F028F8AB
:1025200001462046BDE8384003F0EABB70B50646D8
:102530000D4602F015F80446304602F019F82A1E3E
:102540000146204618BF0122BDE8704003F0DEBB03
:102550000023122270B586B0CDE9022304930368EC
:10256000032B01D804230593061D841D304601F07A
:10257000F7FF0546304601F0FBFF034601A9284658
:10258000019303F0B5F9204601F0EAFF0346204627
:102590001C4601F0EDFF01A903462046019303F01C
:1025A000A7F906B070BD00BF634A0368934210B537
:1025B0008CB028D0614A934258D0614A934200F0CF
:1025C0009480604A934201D00CB010BD5E4C5F48CD
:1025D000D4F8E03043F00203C4F8E030D4F8E0303F
:1025E00003F002030A930A9BFFF7B2FFD4F8F4301A
:1025F00043F08003C4F8F430D4F8F43003F08003DF
:102600000B930B9BE0E7504C5148D4F8E03043F07B
:102610000203C4F8E030D4F8E03003F00203019381
:10262000019BFFF795FFD4F8E83000221F2043F408
:1026300000131146C4F8E830D4F8E83003F400136E
:102640000293029BD4F8D83043F00103C4F8D83089
:10265000D4F8D83003F001030393039B02F0CCF8C5
:102660001F200CB0BDE8104002F004B9364C3948C8
:10267000D4F8E03043F08003C4F8E030D4F8E03020
:1026800003F080030493049BD4F8E03043F002038A
:10269000C4F8E030D4F8E03003F002030593059B62
:1026A000FFF756FFD4F8E8300022212043F48003DE
:1026B0001146C4F8E830D4F8E83003F480030693F8
:1026C000069BD4F8D83043F00103C4F8D830D4F8CE
:1026D000D83003F001030793079B02F08DF8212007
:1026E0000CB0BDE8104002F0C5B81B48FFF730FF42
:1026F000154B00224820D3F8E840114644F400046A
:10270000C3F8E840D3F8E84004F400040894089CB7
:10271000D3F8D84044F00104C3F8D840D3F8D830F7
:1027200003F001030993099B02F066F848200CB0FE
:10273000BDE8104002F09EB8005400400058004030
:10274000005C0040001C005800440258600F002448
:10275000D80C0024B00D0024880E00242DE9F0438D
:102760001A4B87B000254FF010099E46EC46184BD7
:10277000FF22E04667461A700EF118060EF130048B
:10278000CDE90055CDE90255ADF80090BCE80F0049
:10279000CDE90455AEE80F009CE803000095ADF8C4
:1027A00000908EE80300B8E80F000FC69CE8030015
:1027B0000095ADF8009086E803000FCF0FC49CE8A9
:1027C000030084E8030007B0BDE8F08304000024A0
:1027D000D50C002410B5EFF3108472B6084B1A78AC
:1027E000120602D504B962B610BD1B78D82205487E
:1027F0005BB202FB0300143002F028FDF2E700BFD9
:10280000D50C0024D80C0024014804F03FBB00BFC5
:10281000640D0024014804F039BB00BF3C0E0024C5
:10282000014804F033BB00BF140F00242DE9F0432E
:102830000F68D8243F4D85B007FB04F4032F05EB48
:102840000403036040DCCB680E46012B3CD84DD01E
:102850004FF0D808B646DFF8FC9008FB0758BEE8F2
:102860000F00C446ACE80F00DEF800300DF1100E8A
:10287000CCF80030D8F808C099E80F000EE90F0036
:102880000EEB8703BCF1010F53F8103CC8F88C30F5
:1028900031D0BCF1020F42D0BCF1000F35D0317CF9
:1028A0008C34D823002201202C4403FB0753490019
:1028B000C3E92602C3F894102046C3E92822C3E9DD
:1028C0002A2203F02DFF18B1012005B0BDE8F083E6
:1028D0000146204604F0E6FA0028F5D101462046DC
:1028E00004F00AFB003818BF0120EEE70B7C103B18
:1028F000672BADD9E8E701F015F90F4B98420CBFF3
:102900000E4B0F4BC8F89030C9E701F00BF90A4B9A
:1029100098420CBF0B4B0C4BC8F89030BFE701F04E
:1029200001F9054B98420CBF084B094BC8F8903091
:10293000B5E700BFD80C0024000E27072D0FB030DC
:102940003211D0205F4390608A62E030200BA010EB
:102950001A0980108C2601082DE9F041D0F800807A
:1029600082B00D4617461E4608F18C04204604F03E
:1029700095FA2028FAD1D8F80C3073B96D002046AA
:10298000089C33463A46A9B2009403F01FFF003872
:1029900018BF012002B0BDE8F081089B32463946DD
:1029A000204604F0BDF8F2E72DE9F041D0F80080B0
:1029B00082B00D4617461E4608F18C04204604F0EE
:1029C0006DFA2028FAD1D8F80C3073B96D00204682
:1029D000089C33463A46A9B2009403F0CBFF003876
:1029E00018BF012002B0BDE8F081089B324639468D
:1029F000204604F079F9F2E7044B10221A7483F8A8
:102A0000E82083F8C02183F898227047D80C00246E
:102A100030B5002395B04FF48071062204460B9325
:102A200006921393CDE90C13CDE90E33CDE91133A2
:102A300001F07AF807282BD004F1100541F2883212
:102A400006A9284605F0AAF928B10123184684F8FA
:102A50005C3015B030BD0222022306A92846CDE91C
:102A6000002310220123CDE9022300224FF480032A
:102A7000CDE9042305224FF0807306926A460F9336
:102A800041F2883305F0F6FA0028DED115B030BDEA
:102A90000323012084F85C3015B030BD0000000035
:102AA00070B50023A4B04FF080724FF480750446D7
:102AB000ADF806300D93CDE910320122CDE90E5369
:102AC000CDE91223CDE91433002943D0F02300F1DE
:102AD000100508AEADF80630C02341F28832314609
:102AE0002846089305F05AF928B10123184684F8BE
:102AF0005C3024B070BD41F288320DF106012846E9
:102B000005F0B6F903460028EFD105224FF4807195
:102B10001E93284616924FF080721B9321931F92AA
:102B200002AA9FED1F7BCDE91C13CDE922338DED69
:102B3000027B9FED1D7B41F2883316A98DED047B4E
:102B40009FED1B7B8DED067B05F094FA0028CCD120
:102B500024B070BD00F1100508AE612341F2883247
:102B600031462846089305F019F90028BDD141F2F5
:102B700088320DF10601284605F0F8F90028B4D195
:102B8000BDF80630204623F0780343F04003ADF84B
:102B90000630FFF73DFF00289ED0A6E7AFF3008088
:102BA0000000000001000000100000000100000013
:102BB00000000000000040002DE9F04F00234FF41A
:102BC000807501264FF0807804462DED028BABB066
:102BD0008DF8073013932193299314950E96CDF811
:102BE0005C80CDE91533CDE91863CDE91A33CDE921
:102BF0002253CDE92433CDE9273306231C9300F07B
:102C000093FF072808D004F1100741F288321CA96D
:102C1000384605F0C3F840B10123184684F85C300B
:102C20002BB0BDEC028BBDE8F08F4FF0020A4FF0E5
:102C3000020B4FF0050941F2883308AA1CA9384657
:102C4000CDF89480CDF870909FED2D8BCDE908AB39
:102C50004FF0000A4FF4800B8DED0A8BCDE90CABE1
:102C600005F008FA0028D7D141F2883238460EA97B
:102C700005F094F80028CFD1402341F288320DF1BD
:102C8000070138468DF8073005F0F2F80028C3D167
:102C900041F288330EA902AA3846CDF83890CDF813
:102CA0005C809FED197B8DED048BCDE906AB8DED3E
:102CB000027B05F0DFF903460028ADD1CDF8709016
:102CC0004FF00109CDF894804FF00008219308AA35
:102CD00029931CA938462295CDE92333CDE9273322
:102CE00041F288338DED0A8BCDE90CABCDE9088933
:102CF00005F0C0F9002893D0304684F85C608FE777
:102D00001000000001000000400000004000000032
:102D10002DE9F043624CA3B00D46046000F004FFBF
:102D2000072800F0A980286823466968AA6807C3B5
:102D30001E46AB8926F8043B3046257B677B05F0B1
:102D40000FF8E0B9574B012D4FF00108E061236106
:102D500014BF4FF480134FF40003C4E9058893FABD
:102D6000A3F3B3FA83F34FF48079013BC4F82490C2
:102D7000C4E90B003046236204F086FF38B101221B
:102D8000134684F85C20184623B0BDE8F083662320
:102D90000B90139041F2883206A90693CDE90C906E
:102DA000CDE90E00CDE91100304604F0F7FF002810
:102DB000E5D1992341F2883206A93046069304F002
:102DC000EDFF0028DBD105231C9019906A4614936F
:102DD0004FF08073219014A91D9341F288339FED29
:102DE0002A7BCDE91A90CDE91F008DED007B9FED88
:102DF000287B30468DED027B9FED277B8DED047B9C
:102E000005F038F90028BAD129462046FFF748FED8
:102E10000028B4D12046FFF7CFFE03460028AED1EC
:102E2000002FB0D1189330460027002606AA14A917
:102E3000CDF86890CDE91F33EB2314934FF4406332
:102E40001B934FF4005317934FF440431C93A0235C
:102E50001693062319934FF0805321934FF040733C
:102E6000CDE906671D9305F07DF9034600288AD059
:102E7000434684F85C8086E701230322184684F8E1
:102E80005C2023B0BDE8F0830000000001000000DA
:102E900010000000010000000000000000004000E1
:102EA00038100024005000522DE9F04F8FB0414BF4
:102EB0000024026800AF9A427C63C7E90944C7E96D
:102EC0000B4403D03C37BD46BDE8F08F3A4B40F68B
:102ED00009213A48EB46D3F8D42007F11C0607F144
:102EE000220A4FF0020942F480424FF00308C3F86F
:102EF000D420D3F8D42002F48042BA60BA68D3F860
:102F0000E02042F04002C3F8E020D3F8E02002F0D5
:102F10004002FA60FA68D3F8E02042F02002C3F8D9
:102F2000E020D3F8E02002F020023A613A69D3F8B9
:102F3000E02042F01002C3F8E020D3F8E02002F0D5
:102F400010027A617A69D3F8E02042F00202C3F8F5
:102F5000E020D3F8E030F86103F002033984BB616C
:102F6000174B7B60BB697B6853F8040F7B6001F0F3
:102F7000F7FA7B680546186801F0FAFA16F8013B83
:102F8000786207F124012846C7F830807B63C7E9DF
:102F90000A9402F0ADFC5645E5D100225C201146B2
:102FA00001F02AFC5C2001F065FC3C37DD46BD46A3
:102FB000BDE8F08F00500052004402580A0A090987
:102FC00094100024114B02689A4200D07047104AB6
:102FD00070B5D2F8D4300F4C23F4804304F11806B6
:102FE000C2F8D43054F8040F01F0BAFA054620684C
:102FF00001F0BEFA0146284602F0BAFDB442F1D112
:103000005C20BDE8704001F043BC00BF005000529E
:103010000044025894100024014805F02FB900BF65
:1030200048100024084B1A1D981D03F1080110B424
:103030009C1C9A6603F10A02C3E91834C3E91B0118
:103040005DF8044B5A6770473810002438B50368A0
:1030500071B9026A00F1280500F5AC74012A0CBFB1
:10306000002140218BBB1D4B5722C0F858310DE089
:10307000426A00F1C00500F5E874012A0CBF002186
:103080004021EBB1164B5A22C0F8D0310023204624
:10309000C4E901214FF480524FF4806163626261A0
:1030A0004FF48042C4E903314FF48073C4E906232E
:1030B0004FF40033236201F051FD58B1FFBEFEE72B
:1030C000084B5822C0F8D031E0E7074B5922C0F82E
:1030D0005831DBE7C5E92044A56338BD1000024044
:1030E0007000024028000240580002402DE9F043E1
:1030F000821D05468BB0031D05F10A010830CDE99C
:10310000052305F10C02AB69CDE907010992002BFB
:103110003DD0EB69B3FA83F84FEA58180123022235
:1031200005AE0AAF4FF006090393CDE9012356F827
:10313000044B2B792278934216D02B68F3B1012BE4
:1031400002D1F2B10A230493204601F011FA03469A
:103150002046009301F004FA694602F0C9FBBE4222
:10316000E5D10BB0BDE8F083697963789942E4D189
:10317000B8F1000FF3D02B68002BE0D1CDF8109000
:10318000E2E76378022B14BF0A230823DBE74FF042
:103190000108C3E7534A0368934230B505468BB034
:1031A00055D02032934252D04F4A934204D020321D
:1031B000934201D00BB030BD4C4C4D48D4F8E030B8
:1031C00043F00103C4F8E030D4F8E03003F0010329
:1031D0000593059BD4F8E03043F00803C4F8E030D1
:1031E000D4F8E03003F008030693069BD4F8E030EF
:1031F00043F04003C4F8E030D4F8E03003F040037B
:103200000793079BD4F8F03043F40003C4F8F03080
:10321000D4F8F03003F400030893089BFFF766FF2F
:10322000D4F8D830296843F001032F4A3048C4F855
:10323000D830891AD4F8D83018BF012103F001031F
:103240000993099B0BB0BDE83040FFF7FFBE274C48
:103250002848D4F8E03043F00103C4F8E030D4F853
:10326000E03003F001030093009BD4F8E03043F01A
:103270001003C4F8E030D4F8E03003F010030193F9
:10328000019BD4F8E03043F04003C4F8E030D4F8B8
:10329000E03003F040030293029BD4F8F03043F493
:1032A0008003C4F8F030D4F8F03003F480030393C3
:1032B000039BFFF71BFFD4F8D830296843F00103C4
:1032C000084A0C48C4F8D830891AD4F8D83018BF46
:1032D000012103F001030493049B0BB0BDE83040CF
:1032E000FFF7B4BE04580140045C0140004402589A
:1032F0000C130024B0100024014801F0A7BF00BF48
:1033000008120024014801F0A1BF00BF8012002470
:10331000014801F09BBF00BF64140024014801F084
:1033200095BF00BFDC1400241A4A0368934210B40E
:103330000BD02032934208D0174A934216D0203245
:10334000934213D05DF8044B7047144B0022D3F81E
:103350005442C3F85822002CF4D0D3F84802D3E9E1
:10336000931223465DF8044B520818470B4B00227A
:10337000D3F8B044C3F8B424002CE3D0D3F8AC2481
:10338000D3F8A814D3F8A404520823465DF8044BDC
:10339000184700BF04580140045C0140B0100024ED
:1033A000184A0368934210B40BD02032934208D0DD
:1033B000154A934217D02032934214D05DF8044B43
:1033C0007047124BD3E994245208C3F85822002CBA
:1033D000F4D0D3E99201234601EB820100EB820095
:1033E0005DF8044B1847094BD3F8AC24D3F8B0442C
:1033F0005208C3F8B424002CE0D0D3F8A814D3F8B2
:10340000A404E8E704580140045C0140B010002423
:103410002DE9F04F0C684FF41776754F87B004FB19
:1034200006F6012C07EB060AC0F800A000F3A08006
:103430000D468E464FF00008D44669A3D3E9002319
:1034400069A1D1E90001CDE9022306ABCAF8508297
:1034500003EB8403CDE9040153F810BC53F8083C96
:10346000CAE992880193BEE80F00ACE80F00BEE8FD
:103470000F00ACE80F00019B9EE80300CAF828B0DB
:10348000CAF8C0308CE803002B69042B0CD8DFE8A5
:1034900003F0737D879103004FF41773554A03FBC4
:1034A00004739A64C3F8E020AA692B6A002A43D007
:1034B000002B4FF4177308BF022203FB047318BFDD
:1034C0000322DA6201221A63EA696B6A002A40D198
:1034D000191E4FF4177318BF012103FB0473C3E9CE
:1034E00031126B69022B05D8434A12F80380434A14
:1034F00052F823904FF4177306F1280042464946CC
:1035000003FB04740023384463646363E365C4F815
:10351000DC30C4F8CC30C4F8F430C4E90F33C4E96B
:103520001533C4E93533C4E93B33022306F048FFC1
:10353000002849D0FFBEFEE7191E4FF4177318BFCD
:10354000012103FB0473C3E90B12EA696B6A002AC9
:10355000BED0002B4FF4177308BF022203FB047385
:1035600018BF0322C3F8C4200122C3F8C820B8E75B
:10357000012007B0BDE8F08F4FF417734FF4FA52F3
:1035800003FB04739A64C3F8E0208DE74FF41773CC
:103590004FF47A5203FB04739A64C3F8E02083E784
:1035A0004FF417734FF4FA4203FB04739A64C3F8A1
:1035B000E02079E74FF417734BF6803203FB047376
:1035C0009A64C3F8E0206FE706F1C0000223424688
:1035D0004946384406F0F4FE0028CAD0FFBEFEE794
:1035E00004580140045C014024580140245C01401F
:1035F000B010002400770100FC2601080027010814
:103600000068704770B5046882B015460E46C4F86D
:103610005032C4E99212069AC4F85422A269012ACF
:1036200026D0626A012A9AB211D0294604F1C0005C
:10363000019206F081FF236A019A012B10D02946DE
:1036400004F1280006F078FF002002B070BD04F1FC
:10365000C000019207F002F8236A019A012BEED113
:10366000314604F1280006F0F9FF002002B070BDD9
:10367000226A012A9AB211D0294604F12800019247
:1036800006F05AFF636A019A012B10D0294604F113
:10369000C00006F051FF002002B070BD04F1280008
:1036A000019206F0DBFF636A019A012BEED13146ED
:1036B00004F1C00006F0D2FF002002B070BD00BFD0
:1036C00003681B69042B05D8044A02EB830393EDBE
:1036D000000A70479FED020A704700BF0C270108DF
:1036E00000803B470368D3F858027047704700BF1B
:1036F00008B501F045F8BDE8084001F045B900BF44
:10370000064808B503680BB102F004FB04480368DF
:103710001BB1BDE8084003F0D3BC08BD883F0024BE
:1037200080390024064808B503680BB102F0F2FAAC
:10373000044803681BB1BDE8084003F0C1BC08BDE4
:10374000883F002480390024064808B503680BB17F
:1037500002F0E0FA044803681BB1BDE8084003F03A
:10376000AFBC08BD883F002480390024364BDA6A9C
:10377000520062D59A6A9A6A9A6A9B6A180600D5BC
:1037800000BE314B9B6A990600D500BE2E4B9B6A4A
:10379000DA0600D500BE2C4B9B6A1B0700D500BE85
:1037A000294B9B6A980700D500BE274B9B6AD90717
:1037B00000D500BE244B9B6A1A0400D500BE224BE4
:1037C0009B6A9B0400D500BE1F4B9B6AD80400D5A2
:1037D00000BE1D4B9B6A190500D500BE1A4B9B6AA3
:1037E0005A0500D500BE184B9B6A9B0500D500BE4C
:1037F000154B9B6AD80500D500BE134B9B6A9901F7
:1038000000D500BE104B9B6ADA0100D500BE0E4BFE
:103810009B6A1B0300D500BE0B4B9B6A580300D567
:1038200000BE094B9B6A990300D500BE064B9B6AFC
:10383000DA0306D400BE00BEFEE7DB6A9B07FAD5BA
:10384000F8E700BEF6E700BF00ED00E000F0AABF19
:103850002DE9F041CEB004464C2200210AA80DF01B
:10386000E5FC2022002102A80DF0E0FCBC22002192
:103870001EA80DF0DBFC022004F01EF92368012BCA
:103880004FF0000354D0534A02250193C820D16A57
:10389000514B21F00101D162D26A02F00102019282
:1038A0009A6942F440429A619B6903F44043019350
:1038B000019B494A93699B04FCD548490224002294
:1038C00001268B6A04274FF0080823F003032343E3
:1038D0008B62052316900AA818934FF48033109634
:1038E000179419941597CDF86880CDE91B222122F1
:1038F000CDE91344CDE90A2304F0C8FD00B1FEE789
:103900003F220323294602A8CDE9022300220823EF
:10391000CDE9042340224023CDE9062340234FF480
:103920008062CDE9082305F0DFF80346B8B1FEE771
:10393000294A04250093F0209169264B41F4404127
:103940009161926902F440420092DA6A42F0010207
:10395000DA62DB6A03F001030093009BA9E72022EF
:103960004FF4805125934FF440152B9280222D93D4
:103970001EA83093269135914FF480712492349291
:103980000C223394439140F2271120921022CDF85B
:1039900084802A971F96CDE92E34CDE93B334FF42E
:1039A0008033CDE922463193002446930623CDE9A6
:1039B0003E4527934FF48063094C2C931E94CDE928
:1039C000281205F0EDFA00B1FEE704F09BF84EB0C6
:1039D000BDE8F08100040058004802580044025835
:1039E0000F130F032DE9F0410D46044684B0D1E9D1
:1039F000000184E8030000F093FEAE79002E37D07A
:103A00006F460AF0BBFDFEF7A9FE09F091FA0AF035
:103A100049FB2B79002B54D16B799BB1BFF34F8FAE
:103A2000BFF36F8F3C4B0022C3F85022BFF34F8F80
:103A3000BFF36F8F5A6942F400325A61BFF34F8F60
:103A4000BFF36F8F4FF0FF3200230024002539466B
:103A5000324802928DF80C30CDE9004509F088FE1D
:103A60002E4809F0EDFE08F093FE04B0BDE8F081A9
:103A700020466F46FFF7ECFE012400F033FF4FF0C5
:103A800040534FF4807838460193254BADF8004001
:103A9000CDE9023800F044FF19224FF04043384688
:103AA0008DF80F40ADF80D808DF801408DF80A605B
:103AB0008DF80820019300F033FF042000F020FF70
:103AC0009FE7154C0023C4F88430BFF34F8FD4F820
:103AD000803043F6E07EC3F3C906C3F34E334FEAAA
:103AE000431C0CEA0E00334640EA8372013BC4F8E3
:103AF00060225A1CF8D1ACF1200C1CF1200FF0D13F
:103B0000BFF34F8F636943F480336361BFF34F8F1B
:103B1000BFF36F8F80E700BF00ED00E06815002461
:103B20000E00010305F010B91C4B9B6803F17842AD
:103B3000B2F5003F25D3B3F5803F20D303F16042B7
:103B4000B2F5003F1FD303F15C42B2F5002F1CD346
:103B500003F17042B2F5902F19D303F14842B2F548
:103B6000803F16D303F18042B2F1806F13D303F18B
:103B7000E043B3F5000F2CBF082007207047012059
:103B800070470020704702207047032070470420D0
:103B90007047052070470620704700BF00ED00E029
:103BA00003480023034A044903600DF0E9BA00BF4B
:103BB0006815002400000024ED36000810B4204CE5
:103BC0000022204B83B0D4F888101F4841F47001C4
:103BD000C4F8881019681D4C41F0010119601A6180
:103BE000196808401A4918609A61DA611A629A6283
:103BF000DA621A635A639A63DA631A645A64186859
:103C000020F4802018601A66D3F8DC2042F060426D
:103C1000C3F8DC20D3F8DC300193019B2368194002
:103C2000B1F1005F03D20B4B0122C3F80821044B12
:103C30004FF000629A6003B05DF8044B704700BF1C
:103C400000ED00E0004402587FEDF6EA0010005C51
:103C50000000FFFF00800051704700BF0020704748
:103C600070B50446074E0D463046214608F0A6F8CA
:103C7000304608F0C5F8044B204629461B68984793
:103C8000002070BD980700246C35002470B50446F0
:103C9000074E0D463046214608F090F8304608F0B1
:103CA000AFF8044B204629461B689847002070BD9A
:103CB000340A00247035002400220949094808B557
:103CC00008F072F80849074808F078F8074B1A68B6
:103CD0000AB1002008BD064A00201A6008BD00BFD6
:103CE0006C250024980700246C1500246C350024F2
:103CF000593C000800220949094808B508F054F861
:103D00000849074808F05AF8074B1A680AB100201A
:103D100008BD064A00201A6008BD00BF6C2D0024B3
:103D2000340A00246C1D002470350024593C00081E
:103D300020280AD0212806D1094B18689A889B7937
:103D400008608A808B7100207047054B0868B1F8C5
:103D500004C08A7918600020A3F804C09A717047E3
:103D60007400002420280AD0212806D1094B1868A5
:103D70009A889B7908608A808B7100207047054B78
:103D80000868B1F804C08A7918600020A3F804C05C
:103D90009A7170477C0000240020704710B5094CD0
:103DA000D4F89032D3F814320BB1012010BD0A467A
:103DB0000146204607F0F8FF2046BDE8104008F015
:103DC00005B800BF980700244B4A036830B59342FA
:103DD0008BB04FF00004CDE90444CDE906440894CB
:103DE00004D0464A934249D00BB030BD444D4FF405
:103DF000C0524448D5F8E03043F00103C5F8E03044
:103E0000D5F8E03003F0010300930223009904A9E0
:103E1000CDE904230A23089301F06AFD4FF40072F0
:103E2000002304A937480694CDE9042301F060FD7E
:103E3000D5F8D8302246214643F000636220C5F809
:103E4000D830D5F8D83003F000630193019B00F01F
:103E5000D3FC622000F00EFD22462146632000F0D4
:103E6000CBFC632000F006FD22462146652000F0D1
:103E7000C3FC652000F0FEFC0BB030BD204D4FF4BC
:103E8000404204A9D5F8E03043F00203C5F8E03021
:103E9000D5F8E03003F002030293022302981A4897
:103EA000CDE904230C23089301F022FDD5F8D83086
:103EB000224621464A2043F00073C5F8D830D5F891
:103EC000D83003F000730393039B00F095FC4A2065
:103ED00000F0D0FC224621464B2000F08DFC4B2008
:103EE00000F0C8FC224621464D2000F085FC4D2004
:103EF00000F0C0FC0BB030BD0000084000000440E2
:103F000000440258000002580004025800F5717184
:103F1000D0F8040407F0E0BFC1EBC10300EB83035A
:103F2000D0F80404D3F8082208F004B8C1EBC103A8
:103F300000EB8303D0F804049A6C08F039B800BF92
:103F4000D0F8040408F0D8B8C16810B5044619B117
:103F5000022900D0FEE70121D4F8040408F0B6F8E5
:103F6000D4F80404BDE8104008F088B810B5044641
:103F7000D0F8040408F0AEF82268D2F8003E43F00E
:103F80000103C2F8003E236A23B1034A136943F0D8
:103F90000603136110BD00BF00ED00E0D0F804047B
:103FA00008F0A2B8D0F8040408F0B6B8D0F80404B9
:103FB00008F0B0B8D0F8040408F0B0B8D0F80404A1
:103FC00008F0AEB870B5067804461EB1012E30D0A8
:103FD000002070BD304D0923304AC5F80404C0F8F4
:103FE000985228462E612E63C5E90023022302223F
:103FF000EB600023C5E9062300220023C5E908235E
:1040000001220123C5E90A2302F0A2FF00B1FEE765
:104010008021284603F030FD31464022284603F037
:1040200001FD80220121284603F0FCFC2678012EA8
:10403000CED11B4D09221B4B00216A6002222B604E
:104040000223C5F804442846EB600023C4F89852C4
:104050002961C5E9062300220023C5E90823C5E933
:104060000C2301220023C5E90A2302F071FF044654
:1040700000B1FEE74FF40071284603F0FDFC214635
:104080008022284603F0CEFC4FF4BA72314628460F
:1040900003F0C8FC9CE700BF78350024000008400E
:1040A0008039002400000440D0F8980208B502F0DE
:1040B000E5FF032802D8024B185C08BD022008BDAA
:1040C000302701089446D0F898021A4608B563468E
:1040D00003F05AFB032802D8024B185C08BD0220EB
:1040E00008BD00BF30270108D0F8980208B503F0DA
:1040F00089FB032802D8024B185C08BD022008BDCA
:1041000030270108D0F8980208B503F00BFC03280B
:1041100002D8024B185C08BD022008BD30270108F8
:10412000D0F8980208B503F041FC032802D8024BEE
:10413000185C08BD022008BD302701080A06D0F827
:10414000983206D4C1EBC10103EB810191F8FE0165
:10415000704701F07F01C1EBC10103EB810191F8D0
:104160003E007047D0F8980208B503F0F7FA03282C
:1041700002D8024B185C08BD022008BD3027010898
:10418000D0F8980208B503F0A5FB032802D8024B2B
:10419000185C08BD022008BD30270108D0F898023D
:1041A00008B503F065FB032802D8024B185C08BD74
:1041B000022008BD30270108D0F8980203F080BB28
:1041C000122301480B807047D000002412230148BD
:1041D0000B807047BC000024042301480B8070470B
:1041E000E400002410B5044C0A460448214608F0B7
:1041F00017FA204610BD00BF883D0024342701086F
:1042000010B5044C0A460448214608F009FA204635
:1042100010BD00BF883D00244427010810B5044CA0
:104220000A460448214608F0FBF9204610BD00BFAD
:10423000883D00245827010810B5044C0A4604485C
:10424000214608F0EDF9204610BD00BF883D00244E
:104250006427010810B5044C0A460448214608F0BA
:10426000DFF9204610BD00BF883D002474270108F7
:10427000042301480B807047E400002410B5044C6F
:104280000A460448214608F0CBF9204610BD00BF7D
:10429000883D002434270108464A4FF01A0CD2F812
:1042A0000008D2F80838A1F800C0C31801D142486C
:1042B0007047180FB3F1204FD2F804184FF0000CDC
:1042C0003D4A2CBF3730303082F803C04FF0000C2D
:1042D0009070C3F3036082F805C04FF0000C09280A
:1042E00082F807C04FF0000C8CBF3730303082F8B6
:1042F00009C04FF0000C1071C3F3035082F80BC0DB
:104300004FF0000C092882F80DC08CBF37303030D8
:104310009071C3F3034009288CBF373030301072DE
:10432000C3F3033009288CBF373030309072C3F3A9
:10433000032009288CBF373030301073C3F30310CB
:1043400003F00F0309288CBF37303030092B9073EE
:104350004FF0000094BF30333733B1F1204FD073AA
:1043600013744FEA11734FF000002CBF3733303312
:10437000507400209374C1F30363D0740020092BA0
:1043800050754FF000008CBF37333033D075137544
:10439000C1F303530848092B8CBF3733303393756F
:1043A000C1F30343092B94BF303337331376002313
:1043B0005376704700E0F11FE8000024464A4FF0B2
:1043C0001A0CD2F80008D2F80838A1F800C0C318B7
:1043D00001D142487047180FB3F1204FD2F80418AA
:1043E0004FF0000C3D4A2CBF3730303082F803C00C
:1043F0004FF0000C9070C3F3036082F805C04FF0DB
:10440000000C092882F807C04FF0000C8CBF373031
:10441000303082F809C04FF0000C1071C3F3035024
:1044200082F80BC04FF0000C092882F80DC08CBF39
:10443000373030309071C3F3034009288CBF3730D8
:1044400030301072C3F3033009288CBF373030305E
:104450009072C3F3032009288CBF373030301073BB
:10446000C3F3031003F00F0309288CBF373030303B
:10447000092B90734FF0000094BF30333733B1F104
:10448000204FD07313744FEA11734FF000002CBF0C
:1044900037333033507400209374C1F30363D07406
:1044A0000020092B50754FF000008CBF373330339C
:1044B000D0751375C1F303530848092B8CBF3733EC
:1044C00030339375C1F30343092B94BF3033373333
:1044D000137600235376704700E0F11FE8000024B4
:1044E00010B5044C0A460448214608F099F82046C5
:1044F00010BD00BF883D00246427010810B5044C9E
:104500000A460448214608F08BF8204610BD00BF3B
:10451000883D002458270108D0F8C00208F0F2B8FE
:10452000D0F8C00208F006B9D0F8C00208F00EB901
:10453000704700BFD0F8C00208F0F4B8D0F8C0024D
:1045400008F0F4B8D0F8D00308B501F0A3FF0328B1
:1045500002D8024B185C08BD022008BD882701085C
:10456000024B027853F82200704700BFAC270108C5
:10457000024B427833F81200704700BF8C270108C5
:104580008CB00A2814D8DFE800F01523313F4D5BCA
:104590006977859306004D4BD3F8E02042F48062A2
:1045A000C3F8E020D3F8E03003F480630B930B9B57
:1045B0000CB07047454BD3F8E02042F00102C3F83D
:1045C000E020D3F8E03003F001030193019BEFE713
:1045D0003E4BD3F8E02042F00202C3F8E020D3F8CB
:1045E000E03003F002030293029BE1E7374BD3F87C
:1045F000E02042F00402C3F8E020D3F8E03003F0FA
:1046000004030393039BD3E7304BD3F8E02042F03D
:104610000802C3F8E020D3F8E03003F00803049365
:10462000049BC5E7294BD3F8E02042F01002C3F801
:10463000E020D3F8E03003F010030593059BB7E7C3
:10464000224BD3F8E02042F02002C3F8E020D3F858
:10465000E03003F020030693069BA9E71B4BD3F839
:10466000E02042F04002C3F8E020D3F8E03003F04D
:1046700040030793079B9BE7144BD3F8E02042F0DD
:104680008002C3F8E020D3F8E03003F08003089301
:10469000089B8DE70D4BD3F8E02042F48072C3F8FD
:1046A000E020D3F8E03003F480730993099B7FE79F
:1046B000064BD3F8E02042F40072C3F8E020D3F8B0
:1046C000E03003F400730A930A9B71E70044025838
:1046D000704700BF0F4B1B780BB90120704710B516
:1046E00004464FF47A700C4AB0FBF3F31068B0FB49
:1046F000F3F000F0E1F80F2C00D808B1012010BD54
:10470000002221464FF0FF3000F076F8034B0020E6
:104710001C6010BD020100244C0000240401002490
:1047200038B50320124D00F055F8124C04F03CF956
:10473000114A12499369C3F30323CB5C03F01F03AF
:1047400020FA03F30E202B60926902F00F028A5CBC
:1047500002F01F02D3402360FFF7BCFF10B1012419
:10476000204638BD0446FFF7B3FF204638BD00BFE2
:104770004C00002450000024004402582027010867
:10478000034A044B11681B780B441360704700BF49
:104790004C42002402010024014B1868704700BFFE
:1047A0004C42002438B50446FFF7F6FF0546631C6B
:1047B00002D0044B1B781C44FFF7EEFF431BA342BF
:1047C000FAD338BD02010024014B1868000C704771
:1047D0000010005C06494FF6FF0C0002054BCA684A
:1047E00000F4E06002EA0C0210430343CB60704720
:1047F00000ED00E00000FA051B4BDB68C3F3022369
:1048000000B5C3F1070E03F1040CBEF1040F28BF7D
:104810004FF0040EBCF1060F1AD9033B4FF0FF3CDA
:104820000CFA03FC22EA0C024FF0FF3C00280CFAC1
:104830000EFC21EA0C0101FA03F141EA02010ADB54
:1048400009010A4BC9B2034483F800135DF804FB65
:1048500000221346E8E700F00F000901044BC9B23B
:10486000034419765DF804FB00ED00E000E100E090
:10487000FCEC00E0002807DB00F01F0101234009E9
:10488000024A8B4042F82030704700BF00E100E050
:1048900000280DDB4309012200F01F0005492033E9
:1048A00002FA00F041F82300BFF34F8FBFF36F8F80
:1048B000704700BF00E100E0431EB3F1807F0CD2DF
:1048C0004FF0E022002006494FF0F00C536107231F
:1048D00081F823C09061136170470120704700BFC9
:1048E00000ED00E0BFF35F8F044B00215A6A22F411
:1048F00080325A62C3F89410704700BF00ED00E0A8
:10490000064B40F00100C3F894005A6A42F480322A
:104910005A62BFF34F8FBFF36F8F704700ED00E017
:10492000174A4378C2F89830017821B3436800B53C
:10493000C2F89C30C37A90F80CC01B0690F80FE0C8
:1049400043EA0C7390F80AC00B43817B43EACC43E3
:1049500090F80DC043EA8C4390F809C043EA414304
:10496000017A43EA0E4343EA0C2343EA4103C2F8C7
:10497000A0305DF804FBC2F89C10C2F8A01070478C
:1049800000ED00E0704700BF08B5FFF7FBFF08BD72
:104990000268344B344930B4344D354CAA4218BF08
:1049A0009A420CBF012300238A4208BF43F001034F
:1049B0003031A24208BF43F0010330348A4208BFBD
:1049C00043F001033031A24208BF43F00103303409
:1049D0008A4208BF43F0010301F55C71A24208BF9F
:1049E00043F0010304F55C748A4208BF43F00103FD
:1049F0003031A24208BF43F0010330348A4208BF7D
:104A000043F001033031A24208BF43F001033034C8
:104A10008A4208BF43F001033031A24208BF43F08D
:104A200001038A4208BF43F0010313B9114B9A42B4
:104A300013D1D3B21049114C103BA1FB03515F2B92
:104A40000F4BC1F3021103EA0203615C88BF043318
:104A5000C1658365184630BC704722F0FF0383654B
:104A6000F8E700BF1000024040000240280002406A
:104A700058000240B8040240ABAAAAAADC270108E9
:104A800000FCFFFF0368294A294930B4294D2A4C0C
:104A9000AB4218BF93420CBF012200228B4208BFD9
:104AA00042F001022831A34208BF42F0010228343B
:104AB0008B4208BF42F001022831A34208BF42F0F6
:104AC00001028B4208BF42F0010212B91B4A934215
:104AD00013D1DBB21A4C1B4A0121083B1A4DA4FB2F
:104AE0000343456602EB1312C3F30413920001FA69
:104AF00003F30266836630BC7047DAB21349144C84
:104B00001944103AA829A4FB02234FEA131300D832
:104B10000833104A03F01F0501210F4C1A44A94025
:104B20004466920081660266E5E700BF08540258B9
:104B3000305402581C540258445402589454025899
:104B4000CDCCCCCC0096001680580258F0FBFDBFAF
:104B5000ABAAAAAA008200108008024070B50446E1
:104B6000FFF71AFE002C00F0C68023680546954A20
:104B7000934248D01832934245D0303292498B420A
:104B800018BF934201F130010CBF012200228B4279
:104B900008BF42F0010218318B4208BF42F0010207
:104BA00018318B4208BF42F0010218318B4208BF16
:104BB00042F0010201F556718B4208BF42F001023A
:104BC00018318B4208BF42F0010218318B4208BFF6
:104BD00042F0010218318B4208BF42F00102183145
:104BE0008B4208BF42F0010218318B4208BF42F0ED
:104BF000010218318B4208BF42F001021AB9734A10
:104C0000934240F0F5800222002184F8352084F898
:104C100034101A6822F001021A6005E0FFF7BCFDAB
:104C2000431B052B40D823681A68D107F6D4D4E972
:104C3000022521692A43A0691D680A4361690A4364
:104C4000E16902430A4362492940256A2A430A432B
:104C5000616A04292FD01A605A6922F007021143B1
:104C600059612046FFF794FEE26D3F2302F01F02D8
:104C7000934083602046FFF705FFA368802B3CD05C
:104C80006368A06EDAB2013BD4E91851072B2A60A1
:104C9000486026D90023C4E91B3363670020012341
:104CA000606584F8353070BD2022032301206265E1
:104CB00084F8353070BDD4E90B5129430A431A609A
:104CC0005969A26A21F00701114341F00401002D46
:104CD000C6D000284FD1012A6ED032F00202BFD1D7
:104CE00051E0501E072810D9626FD4E91B31002013
:104CF00018604A60D2E7012070BD0023A16ED4E99C
:104D00001802636003605160C4E72168314B324D83
:104D1000A94218BF994205F114050CBF01230023D5
:104D2000A94208BF43F001031435A94208BF43F06C
:104D300001031435A94208BF43F001031435A94209
:104D400008BF43F001031435A94208BF43F0010333
:104D50003BB9224B994204D0214B224913449B007A
:104D600003E0214B214913449B0001228240C4E906
:104D70001B316267BBE7B0F5005F0ED0022A05D990
:104D8000032A7FF46DAFEA017FF56AAF0123402269
:104D90001846626584F8353070BD032A3FF660AF6F
:104DA00001A050F822F000BF8D4D0008874D00088B
:104DB0008D4D0008B94D0008B5F1C07F7FF450AFAC
:104DC000E4E700BF1000024040000240B804024087
:104DD0003F8010FE085402581C5402589454025844
:104DE0003F820010400902403F9600164059025889
:104DF000324A33483349834218BF934200F12800B6
:104E00000CBF012200228B4208BF42F00102283170
:104E1000834208BF42F0010228308B4208BF42F0B3
:104E200001022831834208BF42F001028B4208BFD1
:104E300042F0010212B9244A934238D102220021E1
:104E4000224D84F8341084F835201A681540A26881
:104E5000402A2AD0802A0CBF4FF480400846266A98
:104E6000D4E90312D20842EAD102616942EAD102CE
:104E7000A16942EAD102E16942EAD102144942EA57
:104E8000161219442A4302431248A0FB010120468E
:104E90001A600B099B00E365FFF77AFDE26D0123C1
:104EA00002F01F0293404360E4E61020D7E740225F
:104EB00003230120626584F8353070BD0854025820
:104EC0001C54025830540258945402580F00FEFFEC
:104ED000F8ABFDA7CDCCCCCC002800F0BC8084463C
:104EE00090F83400012800F0B88001202DE9F0414D
:104EF0009CF835408CF83400844208D000224FF4EE
:104F000000638CF83420CCF85430BDE8F0810220E6
:104F1000DCF800507A4C8CF835000020794ECCF843
:104F200054007948854218BFA54200F118000CBF13
:104F300001240024854208BF44F001041830854252
:104F400008BF44F001041830854208BF44F0010452
:104F50001830854208BF44F0010400F556708542C0
:104F600008BF44F001041830854208BF44F0010432
:104F70001830854208BF44F001041830854208BF4C
:104F800044F001041830854208BF44F00104183091
:104F9000854208BF44F001041830854208BF44F040
:104FA00001041830854208BF44F00104A0F5956063
:104FB000B54218BF8542DCF86C600CBF01200020B0
:104FC00054EA0008286820F001002860DCF864003A
:104FD000DCF86840DCF85870446040D016B1DCE979
:104FE0001C044460DCF85C004FF03F0E00F01F0032
:104FF0000EFA00F0B860286820F4802028606B600A
:10500000DCF80830402B23D0A960EA602B6823F03D
:105010001E0343F016032B60DCF840301BB12B68F5
:1050200043F008032B60DCF860301A68D20303D524
:105030001A6842F480721A601EB1336843F48073B8
:1050400033602B68002043F001032B60BDE8F08142
:10505000AA60E960DAE7012070470220704716B1C4
:10506000DCE91C0444602948DFF8A8E0754518BF56
:1050700085420EF1140E0CBF01200020754508BFBB
:1050800040F001000EF1140E754508BF40F001001C
:105090000EF1140E754508BF40F001000EF1140E1C
:1050A000754508BF40F001000EF1140E754508BFAC
:1050B00040F0010010B9164885420ED1DCF85C00C2
:1050C00000F01F0E012000FA0EF078606B60DCF833
:1050D0000830402B10D0A960EA602B6823F00E0343
:1050E00043F00A032B60DCF84030002B9BD02B6888
:1050F00043F004032B6096E7AA60E960EDE700BF88
:105100004000024028000240580002400854025863
:10511000945402581C54025800285FD038B590F8B7
:1051200035200346022A55D10168444A914248D0AD
:105130001832914245D03032414C4248A14218BF0A
:10514000914204F148040CBF01220022814208BFB1
:1051500042F001023030A14208BF42F00102303477
:10516000814208BF42F0010200F55C70A14208BF15
:1051700042F0010204F55C74814208BF42F0010272
:105180003030A14208BF42F001023034814208BFF2
:1051900042F001023030A14208BF42F00102303437
:1051A000814208BF42F001023030A14208BF42F004
:1051B0000102814208BF42F0010212B9224A914223
:1051C0000ED10422002083F835200B6823F0010360
:1051D0000B6038BD802201205A6538BD0120704720
:1051E0000A681C6E22F00E02D86D9D6D0A6000F0F8
:1051F0001F000A6822F001020A6001222168824031
:1052000021F4807121606A60DA6ED3E91910486078
:1052100032B11168D3E91C0421F48071116044603B
:10522000002401211A6D83F8344083F835101AB137
:1052300018469047204638BD104638BD1000024041
:105240004000024070000240B80402402DE9F043E3
:1052500000229C4B83B09C4E1D68814601920368DE
:105260009A4A846D934218BFB342276808BF01264B
:10527000216818BF002645D018329548834218BFD0
:10528000934200F118000CBF01220022834208BFA4
:1052900042F001021830834208BF42F00102183088
:1052A000834208BF42F001021830834208BF42F037
:1052B000010200F55670834208BF42F00102183027
:1052C000834208BF42F001021830834208BF42F017
:1052D00001021830834208BF42F0010218308342B5
:1052E00008BF42F001021830834208BF42F00102B9
:1052F0001830834208BF42F001021AB9754A93423E
:1053000040F05082D9F85C10082201F01F0C02FA1C
:105310000CF2174240F0888127FA0CF2D2070CD524
:105320005A69100609D5012202FA0CF2A260D9F8D6
:10533000542042F00202C9F854204FF0040E0EFA35
:105340000CF038425BD0002E4FD1634ADFF88081E9
:10535000434518BF934208F118080CBF01220022F0
:10536000434508BF42F0010208F11808434508BF51
:1053700042F0010208F11808434508BF42F001025B
:1053800008F11808434508BF42F0010208F55678B5
:10539000434508BF42F0010208F11808434508BF21
:1053A00042F0010208F11808434508BF42F001022B
:1053B00008F11808434508BF42F0010208F1180837
:1053C000434508BF42F0010208F11808434508BFF1
:1053D00042F0010208F11808434508BF42F00102FB
:1053E0001AB93C4A934240F019821A68920706D5CE
:1053F000A060D9F8542042F00402C9F854201022C9
:1054000002FA0CFC1CEA070F6CD0002E45D1324A80
:105410002F4EB34218BF934206F118060CBF01226B
:105420000022B34208BF42F001021836B34208BF5F
:1054300042F001021836B34208BF42F001021836AA
:10544000B34208BF42F0010206F55676B34208BFE8
:1054500042F001021836B34208BF42F0010218368A
:10546000B34208BF42F001021836B34208BF42F00F
:1054700001021836B34208BF42F001021836B342A7
:1054800008BF42F001021836B34208BF42F00102E1
:105490001AB9104A934240F0C9811A68100721D501
:1054A000C4F808C01A68560300F14C811A68D20586
:1054B00003D41A6822F008021A60D9F840308BB180
:1054C0000CE000BF4C000024100002402800024005
:1054D00058000240B8040240400002404846984745
:1054E000D9F85C1001F01F0120268E403E4268D0A2
:1054F000D9F80020A54BA64FBA4218BF9A4207F12F
:1055000018070CBF01230023BA4208BF43F0010370
:105510001837BA4208BF43F001031837BA4208BF30
:1055200043F001031837BA4208BF43F001031837AC
:10553000BA4208BF43F001031837BA4208BF43F02C
:10554000010307F55677BA4208BF43F00103183745
:10555000BA4208BF43F001031837BA4208BF43F00C
:1055600001031837BA4208BF43F001031837BA42A3
:1055700008BF43F001031837BA4208BF43F00103E4
:105580001837BA4208BF43F001031BB9814B9A4256
:1055900040F062811368DB0613D5A66099F83530B8
:1055A000042B136800F0AE8013F4802F136800F012
:1055B000D3801C0340F1DE80D9F83C300BB1484663
:1055C0009847D9F85430002B00F0B980D9F85430FE
:1055D000D8071FD5D9F80020042189F835101368A1
:1055E00023F0010313606C4BA3FB0535AD0A02E009
:1055F0001368D90704D5019B0133AB420193F7D956
:10560000002389F834301368DB074CBF03230123E0
:1056100089F83530D9F84C30002B00F0908048469E
:1056200003B0BDE8F0431847186840070AD518686A
:1056300020F004001860A260D9F8542042F0010262
:10564000C9F8542027FA0CF2D2077FF576AE534AF8
:105650005348834218BF934200F130000CBF01222F
:105660000022834208BF42F001021830834208BF83
:1056700042F001021830834208BF42F001021830A4
:10568000834208BF42F0010200F55670834208BF12
:1056900042F001021830834208BF42F00102183084
:1056A000834208BF42F001021830834208BF42F033
:1056B00001021830834208BF42F0010218308342D1
:1056C00008BF42F001021830834208BF42F00102D5
:1056D0001830834208BF42F00102002A7FF420AE56
:1056E000002E7FF41DAE1A68042202FA0CF23A4230
:1056F00040F09480102202FA0CFC17EA0C0F3FF4E1
:10570000F1AE84E623F016031360536923F080039F
:105710005361D9F840309BB3136823F0080313603A
:105720003F230025012203FA01F1D9F85030A1608E
:1057300089F8345089F83520002B7FF470AF03B01E
:10574000BDE8F0831B6818037FF5B7AED9F8483081
:10575000002B7FF4C3AEC5E613F480737FF42CAF47
:10576000116821F010011160012289F8343089F8A4
:10577000352021E7D9F84430002B7FF420AF20E713
:10578000D9F84830002BC7D1CAE700BF100002404B
:1057900028000240B8040240B5814E1B5800024068
:1057A000400002404E4A4F4DAB4218BF934205F1B4
:1057B00014050CBF01220022AB4208BF42F00102D7
:1057C0001435AB4208BF42F001021435AB4208BFAA
:1057D00042F001021435AB4208BF42F00102143519
:1057E000AB4208BF42F0010212B93F4A9342A6D130
:1057F000D9F85C5004261A6805F01F05AE400E4229
:1058000019D0570717D5100466604BD5D1034FD474
:10581000D9F84830002B7FF402AF90E71A681022C5
:1058200002FA0CFC17EA0C0F3FF45CAE1A68520740
:105830007FF558AE34E60226AE400E4211D09707EF
:105840000FD56660140439D5D00343D4D9F8443059
:10585000002B7FF4E4AE72E713689F077FF5B1AECB
:105860009BE60826AE400E423FF469AF11077FF574
:1058700066AF1A68002122F00E021A600123D9F8DF
:105880004C2003FA05F56560C9F8543089F83410E6
:1058900089F83530002A3FF452AF484603B0BDE8DE
:1058A000F0431047920603D41A6822F004021A60EB
:1058B000D9F84030002B7FF4B2AE40E712F020025E
:1058C00008D11968012421F00A01196089F83420EF
:1058D00089F83540D9F83C30002B7FF4A0AE2EE794
:1058E000085402581C54025894540258406D704792
:1058F0002DE9F04F0D6883B0002D00F0D580002316
:10590000DFF8688201229A4012EA050C00F0C78095
:105910004E6826F01009B9F1020F40F0C88003F07C
:1059200007044FEAD30E4FF00F0A4FEA840900EB49
:105930008E0E0AFA09FADEF8204024EA0A0A0C69F7
:1059400004FA09F406F0030944EA0A04CEF82040F8
:105950004FEA430E0324D0F800A009FA0EF904FA26
:105960000EF42AEA040AE44349EA0A09C0F800905E
:10597000D0F808A0CF6804EA0A0A07FA0EF949EA43
:105980000A09C0F80890C6F30019D0F804A009FA73
:1059900003F92AEA020249EA02024260C268F700F9
:1059A00004EA02048A6802FA0EF242EA0402C260C1
:1059B00075D5644C23F0030E03F00309D4F8F420EA
:1059C000C6444FEA890942F00202C4F8F420D4F830
:1059D000F42002F002020192019A0F22DEF8084040
:1059E00002FA09F224EA0202574CA04225D004F53B
:1059F0008064A0427BD0554CA0427ED0544CA04243
:105A00006FD0544CA04200F08480534CA04200F070
:105A10008680524CA04276D0514CA04200F0858046
:105A2000504CA04200F087804F4CA0420CBF09248C
:105A30000A2404FA09F942EA0902CEF808204FF0D4
:105A4000B0426FEA0C0EF403D2F880204FF0B0445D
:105A500054BF0EEA02024CEA0202C4F88020B203EC
:105A6000D4F884404FF0B04254BF0EEA04044CEA2C
:105A70000404F702C2F8844014684FF0B04254BFE7
:105A80000EEA04044CEA04041460B40252684FF0B5
:105A9000B04454BF0EEA02024CEA020262600133D3
:105AA00035FA03F27FF42EAF03B0BDE8F08F4FEA72
:105AB000430E0324D0F800B006F0030A04FA0EF4F3
:105AC00009F1FF390AFA0EFA2BEA040BB9F1010FBA
:105AD0006FEA04044AEA0B0AC0F800A03FF65EAF82
